{
  "contractName": "HankoContract",
  "abi": [
    {
      "inputs": [],
      "stateMutability": "nonpayable",
      "type": "constructor"
    },
    {
      "anonymous": false,
      "inputs": [
        {
          "indexed": true,
          "internalType": "address",
          "name": "account",
          "type": "address"
        },
        {
          "indexed": true,
          "internalType": "address",
          "name": "operator",
          "type": "address"
        },
        {
          "indexed": false,
          "internalType": "bool",
          "name": "approved",
          "type": "bool"
        }
      ],
      "name": "ApprovalForAll",
      "type": "event"
    },
    {
      "anonymous": false,
      "inputs": [
        {
          "indexed": true,
          "internalType": "address",
          "name": "previousOwner",
          "type": "address"
        },
        {
          "indexed": true,
          "internalType": "address",
          "name": "newOwner",
          "type": "address"
        }
      ],
      "name": "OwnershipTransferred",
      "type": "event"
    },
    {
      "anonymous": false,
      "inputs": [
        {
          "indexed": true,
          "internalType": "address",
          "name": "operator",
          "type": "address"
        },
        {
          "indexed": true,
          "internalType": "address",
          "name": "from",
          "type": "address"
        },
        {
          "indexed": true,
          "internalType": "address",
          "name": "to",
          "type": "address"
        },
        {
          "indexed": false,
          "internalType": "uint256[]",
          "name": "ids",
          "type": "uint256[]"
        },
        {
          "indexed": false,
          "internalType": "uint256[]",
          "name": "values",
          "type": "uint256[]"
        }
      ],
      "name": "TransferBatch",
      "type": "event"
    },
    {
      "anonymous": false,
      "inputs": [
        {
          "indexed": true,
          "internalType": "address",
          "name": "operator",
          "type": "address"
        },
        {
          "indexed": true,
          "internalType": "address",
          "name": "from",
          "type": "address"
        },
        {
          "indexed": true,
          "internalType": "address",
          "name": "to",
          "type": "address"
        },
        {
          "indexed": false,
          "internalType": "uint256",
          "name": "id",
          "type": "uint256"
        },
        {
          "indexed": false,
          "internalType": "uint256",
          "name": "value",
          "type": "uint256"
        }
      ],
      "name": "TransferSingle",
      "type": "event"
    },
    {
      "anonymous": false,
      "inputs": [
        {
          "indexed": false,
          "internalType": "string",
          "name": "value",
          "type": "string"
        },
        {
          "indexed": true,
          "internalType": "uint256",
          "name": "id",
          "type": "uint256"
        }
      ],
      "name": "URI",
      "type": "event"
    },
    {
      "inputs": [],
      "name": "JAPAN",
      "outputs": [
        {
          "internalType": "uint256",
          "name": "",
          "type": "uint256"
        }
      ],
      "stateMutability": "view",
      "type": "function",
      "constant": true
    },
    {
      "inputs": [],
      "name": "KANJI",
      "outputs": [
        {
          "internalType": "uint256",
          "name": "",
          "type": "uint256"
        }
      ],
      "stateMutability": "view",
      "type": "function",
      "constant": true
    },
    {
      "inputs": [],
      "name": "KATAKANA",
      "outputs": [
        {
          "internalType": "uint256",
          "name": "",
          "type": "uint256"
        }
      ],
      "stateMutability": "view",
      "type": "function",
      "constant": true
    },
    {
      "inputs": [
        {
          "internalType": "address",
          "name": "account",
          "type": "address"
        },
        {
          "internalType": "uint256",
          "name": "id",
          "type": "uint256"
        }
      ],
      "name": "balanceOf",
      "outputs": [
        {
          "internalType": "uint256",
          "name": "",
          "type": "uint256"
        }
      ],
      "stateMutability": "view",
      "type": "function",
      "constant": true
    },
    {
      "inputs": [
        {
          "internalType": "address[]",
          "name": "accounts",
          "type": "address[]"
        },
        {
          "internalType": "uint256[]",
          "name": "ids",
          "type": "uint256[]"
        }
      ],
      "name": "balanceOfBatch",
      "outputs": [
        {
          "internalType": "uint256[]",
          "name": "",
          "type": "uint256[]"
        }
      ],
      "stateMutability": "view",
      "type": "function",
      "constant": true
    },
    {
      "inputs": [
        {
          "internalType": "address",
          "name": "account",
          "type": "address"
        },
        {
          "internalType": "address",
          "name": "operator",
          "type": "address"
        }
      ],
      "name": "isApprovedForAll",
      "outputs": [
        {
          "internalType": "bool",
          "name": "",
          "type": "bool"
        }
      ],
      "stateMutability": "view",
      "type": "function",
      "constant": true
    },
    {
      "inputs": [],
      "name": "owner",
      "outputs": [
        {
          "internalType": "address",
          "name": "",
          "type": "address"
        }
      ],
      "stateMutability": "view",
      "type": "function",
      "constant": true
    },
    {
      "inputs": [],
      "name": "renounceOwnership",
      "outputs": [],
      "stateMutability": "nonpayable",
      "type": "function"
    },
    {
      "inputs": [
        {
          "internalType": "address",
          "name": "from",
          "type": "address"
        },
        {
          "internalType": "address",
          "name": "to",
          "type": "address"
        },
        {
          "internalType": "uint256[]",
          "name": "ids",
          "type": "uint256[]"
        },
        {
          "internalType": "uint256[]",
          "name": "amounts",
          "type": "uint256[]"
        },
        {
          "internalType": "bytes",
          "name": "data",
          "type": "bytes"
        }
      ],
      "name": "safeBatchTransferFrom",
      "outputs": [],
      "stateMutability": "nonpayable",
      "type": "function"
    },
    {
      "inputs": [
        {
          "internalType": "address",
          "name": "from",
          "type": "address"
        },
        {
          "internalType": "address",
          "name": "to",
          "type": "address"
        },
        {
          "internalType": "uint256",
          "name": "id",
          "type": "uint256"
        },
        {
          "internalType": "uint256",
          "name": "amount",
          "type": "uint256"
        },
        {
          "internalType": "bytes",
          "name": "data",
          "type": "bytes"
        }
      ],
      "name": "safeTransferFrom",
      "outputs": [],
      "stateMutability": "nonpayable",
      "type": "function"
    },
    {
      "inputs": [
        {
          "internalType": "address",
          "name": "operator",
          "type": "address"
        },
        {
          "internalType": "bool",
          "name": "approved",
          "type": "bool"
        }
      ],
      "name": "setApprovalForAll",
      "outputs": [],
      "stateMutability": "nonpayable",
      "type": "function"
    },
    {
      "inputs": [
        {
          "internalType": "bytes4",
          "name": "interfaceId",
          "type": "bytes4"
        }
      ],
      "name": "supportsInterface",
      "outputs": [
        {
          "internalType": "bool",
          "name": "",
          "type": "bool"
        }
      ],
      "stateMutability": "view",
      "type": "function",
      "constant": true
    },
    {
      "inputs": [
        {
          "internalType": "address",
          "name": "newOwner",
          "type": "address"
        }
      ],
      "name": "transferOwnership",
      "outputs": [],
      "stateMutability": "nonpayable",
      "type": "function"
    },
    {
      "inputs": [
        {
          "internalType": "uint256",
          "name": "",
          "type": "uint256"
        }
      ],
      "name": "uri",
      "outputs": [
        {
          "internalType": "string",
          "name": "",
          "type": "string"
        }
      ],
      "stateMutability": "view",
      "type": "function",
      "constant": true
    },
    {
      "inputs": [
        {
          "internalType": "address",
          "name": "account",
          "type": "address"
        },
        {
          "internalType": "uint256",
          "name": "id",
          "type": "uint256"
        },
        {
          "internalType": "uint256",
          "name": "amount",
          "type": "uint256"
        }
      ],
      "name": "mint",
      "outputs": [],
      "stateMutability": "nonpayable",
      "type": "function"
    },
    {
      "inputs": [
        {
          "internalType": "address",
          "name": "account",
          "type": "address"
        },
        {
          "internalType": "uint256",
          "name": "id",
          "type": "uint256"
        },
        {
          "internalType": "uint256",
          "name": "amount",
          "type": "uint256"
        }
      ],
      "name": "burn",
      "outputs": [],
      "stateMutability": "nonpayable",
      "type": "function"
    }
  ],
  "bytecode": "0x60806040523480156200001157600080fd5b506040518060600160405280602d815260200162003f01602d91396200003d81620000d360201b60201c565b506200005e62000052620000ef60201b60201c565b620000f760201b60201c565b62000083336000600160405180602001604052806000815250620001bd60201b60201c565b620000a8336001600260405180602001604052806000815250620001bd60201b60201c565b620000cd336002600360405180602001604052806000815250620001bd60201b60201c565b62000dad565b8060029080519060200190620000eb92919062000628565b5050565b600033905090565b6000600360009054906101000a900473ffffffffffffffffffffffffffffffffffffffff16905081600360006101000a81548173ffffffffffffffffffffffffffffffffffffffff021916908373ffffffffffffffffffffffffffffffffffffffff1602179055508173ffffffffffffffffffffffffffffffffffffffff168173ffffffffffffffffffffffffffffffffffffffff167f8be0079c531659141344cd1fd0a4f28419497f9722a3daafe3b4186f6b6457e060405160405180910390a35050565b600073ffffffffffffffffffffffffffffffffffffffff168473ffffffffffffffffffffffffffffffffffffffff16141562000230576040517f08c379a000000000000000000000000000000000000000000000000000000000815260040162000227906200075f565b60405180910390fd5b600062000242620000ef60201b60201c565b90506200027b816000876200025d886200038260201b60201c565b6200026e886200038260201b60201c565b876200040360201b60201c565b8260008086815260200190815260200160002060008773ffffffffffffffffffffffffffffffffffffffff1673ffffffffffffffffffffffffffffffffffffffff1681526020019081526020016000206000828254620002dc9190620007ba565b925050819055508473ffffffffffffffffffffffffffffffffffffffff16600073ffffffffffffffffffffffffffffffffffffffff168273ffffffffffffffffffffffffffffffffffffffff167fc3d58168c5ae7397731d063d5bbf3d657854427343f4c083240f7aacaa2d0f6287876040516200035c92919062000828565b60405180910390a46200037b816000878787876200040b60201b60201c565b5050505050565b60606000600167ffffffffffffffff811115620003a457620003a362000855565b5b604051908082528060200260200182016040528015620003d35781602001602082028036833780820191505090505b5090508281600081518110620003ee57620003ed62000884565b5b60200260200101818152505080915050919050565b505050505050565b620004378473ffffffffffffffffffffffffffffffffffffffff166200060560201b62000afe1760201c565b15620005fd578373ffffffffffffffffffffffffffffffffffffffff1663f23a6e6187878686866040518663ffffffff1660e01b8152600401620004809594939291906200099c565b6020604051808303816000875af1925050508015620004bf57506040513d601f19601f82011682018060405250810190620004bc919062000a6c565b60015b6200057157620004ce62000aab565b806308c379a01415620005325750620004e662000b06565b80620004f3575062000534565b806040517f08c379a000000000000000000000000000000000000000000000000000000000815260040162000529919062000bf4565b60405180910390fd5b505b6040517f08c379a0000000000000000000000000000000000000000000000000000000008152600401620005689062000c8e565b60405180910390fd5b63f23a6e6160e01b7bffffffffffffffffffffffffffffffffffffffffffffffffffffffff1916817bffffffffffffffffffffffffffffffffffffffffffffffffffffffff191614620005fb576040517f08c379a0000000000000000000000000000000000000000000000000000000008152600401620005f29062000d26565b60405180910390fd5b505b505050505050565b6000808273ffffffffffffffffffffffffffffffffffffffff163b119050919050565b828054620006369062000d77565b90600052602060002090601f0160209004810192826200065a5760008555620006a6565b82601f106200067557805160ff1916838001178555620006a6565b82800160010185558215620006a6579182015b82811115620006a557825182559160200191906001019062000688565b5b509050620006b59190620006b9565b5090565b5b80821115620006d4576000816000905550600101620006ba565b5090565b600082825260208201905092915050565b7f455243313135353a206d696e7420746f20746865207a65726f2061646472657360008201527f7300000000000000000000000000000000000000000000000000000000000000602082015250565b600062000747602183620006d8565b91506200075482620006e9565b604082019050919050565b600060208201905081810360008301526200077a8162000738565b9050919050565b6000819050919050565b7f4e487b7100000000000000000000000000000000000000000000000000000000600052601160045260246000fd5b6000620007c78262000781565b9150620007d48362000781565b9250827fffffffffffffffffffffffffffffffffffffffffffffffffffffffffffffffff038211156200080c576200080b6200078b565b5b828201905092915050565b620008228162000781565b82525050565b60006040820190506200083f600083018562000817565b6200084e602083018462000817565b9392505050565b7f4e487b7100000000000000000000000000000000000000000000000000000000600052604160045260246000fd5b7f4e487b7100000000000000000000000000000000000000000000000000000000600052603260045260246000fd5b600073ffffffffffffffffffffffffffffffffffffffff82169050919050565b6000620008e082620008b3565b9050919050565b620008f281620008d3565b82525050565b600081519050919050565b600082825260208201905092915050565b60005b838110156200093457808201518184015260208101905062000917565b8381111562000944576000848401525b50505050565b6000601f19601f8301169050919050565b60006200096882620008f8565b62000974818562000903565b93506200098681856020860162000914565b62000991816200094a565b840191505092915050565b600060a082019050620009b36000830188620008e7565b620009c26020830187620008e7565b620009d1604083018662000817565b620009e0606083018562000817565b8181036080830152620009f481846200095b565b90509695505050505050565b6000604051905090565b600080fd5b60007fffffffff0000000000000000000000000000000000000000000000000000000082169050919050565b62000a468162000a0f565b811462000a5257600080fd5b50565b60008151905062000a668162000a3b565b92915050565b60006020828403121562000a855762000a8462000a0a565b5b600062000a958482850162000a55565b91505092915050565b60008160e01c9050919050565b600060033d111562000acd5760046000803e62000aca60005162000a9e565b90505b90565b62000adb826200094a565b810181811067ffffffffffffffff8211171562000afd5762000afc62000855565b5b80604052505050565b600060443d101562000b185762000ba5565b62000b2262000a00565b60043d036004823e80513d602482011167ffffffffffffffff8211171562000b4c57505062000ba5565b808201805167ffffffffffffffff81111562000b6c575050505062000ba5565b80602083010160043d03850181111562000b8b57505050505062000ba5565b62000b9c8260200185018662000ad0565b82955050505050505b90565b600081519050919050565b600062000bc08262000ba8565b62000bcc8185620006d8565b935062000bde81856020860162000914565b62000be9816200094a565b840191505092915050565b6000602082019050818103600083015262000c10818462000bb3565b905092915050565b7f455243313135353a207472616e7366657220746f206e6f6e204552433131353560008201527f526563656976657220696d706c656d656e746572000000000000000000000000602082015250565b600062000c76603483620006d8565b915062000c838262000c18565b604082019050919050565b6000602082019050818103600083015262000ca98162000c67565b9050919050565b7f455243313135353a204552433131353552656365697665722072656a6563746560008201527f6420746f6b656e73000000000000000000000000000000000000000000000000602082015250565b600062000d0e602883620006d8565b915062000d1b8262000cb0565b604082019050919050565b6000602082019050818103600083015262000d418162000cff565b9050919050565b7f4e487b7100000000000000000000000000000000000000000000000000000000600052602260045260246000fd5b6000600282049050600182168062000d9057607f821691505b6020821081141562000da75762000da662000d48565b5b50919050565b6131448062000dbd6000396000f3fe608060405234801561001057600080fd5b50600436106100fe5760003560e01c80636921d71a11610097578063e985e9c511610066578063e985e9c514610299578063f242432a146102c9578063f2fde38b146102e5578063f5298aca14610301576100fe565b80636921d71a14610237578063715018a6146102555780638da5cb5b1461025f578063a22cb4651461027d576100fe565b8063156e29f6116100d3578063156e29f6146101b15780632eb2c2d6146101cd578063425c7ffd146101e95780634e1273f414610207576100fe565b8062a6020314610103578062fdd58e1461012157806301ffc9a7146101515780630e89341c14610181575b600080fd5b61010b61031d565b6040516101189190611b5a565b60405180910390f35b61013b60048036038101906101369190611c13565b610322565b6040516101489190611b5a565b60405180910390f35b61016b60048036038101906101669190611cab565b6103eb565b6040516101789190611cf3565b60405180910390f35b61019b60048036038101906101969190611d0e565b6104cd565b6040516101a89190611dd4565b60405180910390f35b6101cb60048036038101906101c69190611df6565b610561565b005b6101e760048036038101906101e29190612046565b6105fd565b005b6101f161069e565b6040516101fe9190611b5a565b60405180910390f35b610221600480360381019061021c91906121d8565b6106a3565b60405161022e919061230e565b60405180910390f35b61023f6107bc565b60405161024c9190611b5a565b60405180910390f35b61025d6107c1565b005b610267610849565b604051610274919061233f565b60405180910390f35b61029760048036038101906102929190612386565b610873565b005b6102b360048036038101906102ae91906123c6565b610889565b6040516102c09190611cf3565b60405180910390f35b6102e360048036038101906102de9190612406565b61091d565b005b6102ff60048036038101906102fa919061249d565b6109be565b005b61031b60048036038101906103169190611df6565b610ab6565b005b600281565b60008073ffffffffffffffffffffffffffffffffffffffff168373ffffffffffffffffffffffffffffffffffffffff161415610393576040517f08c379a000000000000000000000000000000000000000000000000000000000815260040161038a9061253c565b60405180910390fd5b60008083815260200190815260200160002060008473ffffffffffffffffffffffffffffffffffffffff1673ffffffffffffffffffffffffffffffffffffffff16815260200190815260200160002054905092915050565b60007fd9b67a26000000000000000000000000000000000000000000000000000000007bffffffffffffffffffffffffffffffffffffffffffffffffffffffff1916827bffffffffffffffffffffffffffffffffffffffffffffffffffffffff191614806104b657507f0e89341c000000000000000000000000000000000000000000000000000000007bffffffffffffffffffffffffffffffffffffffffffffffffffffffff1916827bffffffffffffffffffffffffffffffffffffffffffffffffffffffff1916145b806104c657506104c582610b21565b5b9050919050565b6060600280546104dc9061258b565b80601f01602080910402602001604051908101604052809291908181526020018280546105089061258b565b80156105555780601f1061052a57610100808354040283529160200191610555565b820191906000526020600020905b81548152906001019060200180831161053857829003601f168201915b50505050509050919050565b610569610b8b565b73ffffffffffffffffffffffffffffffffffffffff16610587610849565b73ffffffffffffffffffffffffffffffffffffffff16146105dd576040517f08c379a00000000000000000000000000000000000000000000000000000000081526004016105d490612609565b60405180910390fd5b6105f833838360405180602001604052806000815250610b93565b505050565b610605610b8b565b73ffffffffffffffffffffffffffffffffffffffff168573ffffffffffffffffffffffffffffffffffffffff16148061064b575061064a85610645610b8b565b610889565b5b61068a576040517f08c379a00000000000000000000000000000000000000000000000000000000081526004016106819061269b565b60405180910390fd5b6106978585858585610d29565b5050505050565b600181565b606081518351146106e9576040517f08c379a00000000000000000000000000000000000000000000000000000000081526004016106e09061272d565b60405180910390fd5b6000835167ffffffffffffffff81111561070657610705611e4e565b5b6040519080825280602002602001820160405280156107345781602001602082028036833780820191505090505b50905060005b84518110156107b1576107818582815181106107595761075861274d565b5b60200260200101518583815181106107745761077361274d565b5b6020026020010151610322565b8282815181106107945761079361274d565b5b602002602001018181525050806107aa906127ab565b905061073a565b508091505092915050565b600081565b6107c9610b8b565b73ffffffffffffffffffffffffffffffffffffffff166107e7610849565b73ffffffffffffffffffffffffffffffffffffffff161461083d576040517f08c379a000000000000000000000000000000000000000000000000000000000815260040161083490612609565b60405180910390fd5b610847600061103d565b565b6000600360009054906101000a900473ffffffffffffffffffffffffffffffffffffffff16905090565b61088561087e610b8b565b8383611103565b5050565b6000600160008473ffffffffffffffffffffffffffffffffffffffff1673ffffffffffffffffffffffffffffffffffffffff16815260200190815260200160002060008373ffffffffffffffffffffffffffffffffffffffff1673ffffffffffffffffffffffffffffffffffffffff16815260200190815260200160002060009054906101000a900460ff16905092915050565b610925610b8b565b73ffffffffffffffffffffffffffffffffffffffff168573ffffffffffffffffffffffffffffffffffffffff16148061096b575061096a85610965610b8b565b610889565b5b6109aa576040517f08c379a00000000000000000000000000000000000000000000000000000000081526004016109a190612866565b60405180910390fd5b6109b78585858585611270565b5050505050565b6109c6610b8b565b73ffffffffffffffffffffffffffffffffffffffff166109e4610849565b73ffffffffffffffffffffffffffffffffffffffff1614610a3a576040517f08c379a0000000000000000000000000000000000000000000000000000000008152600401610a3190612609565b60405180910390fd5b600073ffffffffffffffffffffffffffffffffffffffff168173ffffffffffffffffffffffffffffffffffffffff161415610aaa576040517f08c379a0000000000000000000000000000000000000000000000000000000008152600401610aa1906128f8565b60405180910390fd5b610ab38161103d565b50565b8273ffffffffffffffffffffffffffffffffffffffff163373ffffffffffffffffffffffffffffffffffffffff1614610aee57600080fd5b610af98383836114f2565b505050565b6000808273ffffffffffffffffffffffffffffffffffffffff163b119050919050565b60007f01ffc9a7000000000000000000000000000000000000000000000000000000007bffffffffffffffffffffffffffffffffffffffffffffffffffffffff1916827bffffffffffffffffffffffffffffffffffffffffffffffffffffffff1916149050919050565b600033905090565b600073ffffffffffffffffffffffffffffffffffffffff168473ffffffffffffffffffffffffffffffffffffffff161415610c03576040517f08c379a0000000000000000000000000000000000000000000000000000000008152600401610bfa9061298a565b60405180910390fd5b6000610c0d610b8b565b9050610c2e81600087610c1f8861170f565b610c288861170f565b87611789565b8260008086815260200190815260200160002060008773ffffffffffffffffffffffffffffffffffffffff1673ffffffffffffffffffffffffffffffffffffffff1681526020019081526020016000206000828254610c8d91906129aa565b925050819055508473ffffffffffffffffffffffffffffffffffffffff16600073ffffffffffffffffffffffffffffffffffffffff168273ffffffffffffffffffffffffffffffffffffffff167fc3d58168c5ae7397731d063d5bbf3d657854427343f4c083240f7aacaa2d0f628787604051610d0b929190612a00565b60405180910390a4610d2281600087878787611791565b5050505050565b8151835114610d6d576040517f08c379a0000000000000000000000000000000000000000000000000000000008152600401610d6490612a9b565b60405180910390fd5b600073ffffffffffffffffffffffffffffffffffffffff168473ffffffffffffffffffffffffffffffffffffffff161415610ddd576040517f08c379a0000000000000000000000000000000000000000000000000000000008152600401610dd490612b2d565b60405180910390fd5b6000610de7610b8b565b9050610df7818787878787611789565b60005b8451811015610fa8576000858281518110610e1857610e1761274d565b5b602002602001015190506000858381518110610e3757610e3661274d565b5b60200260200101519050600080600084815260200190815260200160002060008b73ffffffffffffffffffffffffffffffffffffffff1673ffffffffffffffffffffffffffffffffffffffff16815260200190815260200160002054905081811015610ed8576040517f08c379a0000000000000000000000000000000000000000000000000000000008152600401610ecf90612bbf565b60405180910390fd5b81810360008085815260200190815260200160002060008c73ffffffffffffffffffffffffffffffffffffffff1673ffffffffffffffffffffffffffffffffffffffff168152602001908152602001600020819055508160008085815260200190815260200160002060008b73ffffffffffffffffffffffffffffffffffffffff1673ffffffffffffffffffffffffffffffffffffffff1681526020019081526020016000206000828254610f8d91906129aa565b9250508190555050505080610fa1906127ab565b9050610dfa565b508473ffffffffffffffffffffffffffffffffffffffff168673ffffffffffffffffffffffffffffffffffffffff168273ffffffffffffffffffffffffffffffffffffffff167f4a39dc06d4c0dbc64b70af90fd698a233a518aa5d07e595d983b8c0526c8f7fb878760405161101f929190612bdf565b60405180910390a4611035818787878787611969565b505050505050565b6000600360009054906101000a900473ffffffffffffffffffffffffffffffffffffffff16905081600360006101000a81548173ffffffffffffffffffffffffffffffffffffffff021916908373ffffffffffffffffffffffffffffffffffffffff1602179055508173ffffffffffffffffffffffffffffffffffffffff168173ffffffffffffffffffffffffffffffffffffffff167f8be0079c531659141344cd1fd0a4f28419497f9722a3daafe3b4186f6b6457e060405160405180910390a35050565b8173ffffffffffffffffffffffffffffffffffffffff168373ffffffffffffffffffffffffffffffffffffffff161415611172576040517f08c379a000000000000000000000000000000000000000000000000000000000815260040161116990612c88565b60405180910390fd5b80600160008573ffffffffffffffffffffffffffffffffffffffff1673ffffffffffffffffffffffffffffffffffffffff16815260200190815260200160002060008473ffffffffffffffffffffffffffffffffffffffff1673ffffffffffffffffffffffffffffffffffffffff16815260200190815260200160002060006101000a81548160ff0219169083151502179055508173ffffffffffffffffffffffffffffffffffffffff168373ffffffffffffffffffffffffffffffffffffffff167f17307eab39ab6107e8899845ad3d59bd9653f200f220920489ca2b5937696c31836040516112639190611cf3565b60405180910390a3505050565b600073ffffffffffffffffffffffffffffffffffffffff168473ffffffffffffffffffffffffffffffffffffffff1614156112e0576040517f08c379a00000000000000000000000000000000000000000000000000000000081526004016112d790612b2d565b60405180910390fd5b60006112ea610b8b565b905061130a8187876112fb8861170f565b6113048861170f565b87611789565b600080600086815260200190815260200160002060008873ffffffffffffffffffffffffffffffffffffffff1673ffffffffffffffffffffffffffffffffffffffff168152602001908152602001600020549050838110156113a1576040517f08c379a000000000000000000000000000000000000000000000000000000000815260040161139890612bbf565b60405180910390fd5b83810360008087815260200190815260200160002060008973ffffffffffffffffffffffffffffffffffffffff1673ffffffffffffffffffffffffffffffffffffffff168152602001908152602001600020819055508360008087815260200190815260200160002060008873ffffffffffffffffffffffffffffffffffffffff1673ffffffffffffffffffffffffffffffffffffffff168152602001908152602001600020600082825461145691906129aa565b925050819055508573ffffffffffffffffffffffffffffffffffffffff168773ffffffffffffffffffffffffffffffffffffffff168373ffffffffffffffffffffffffffffffffffffffff167fc3d58168c5ae7397731d063d5bbf3d657854427343f4c083240f7aacaa2d0f6288886040516114d3929190612a00565b60405180910390a46114e9828888888888611791565b50505050505050565b600073ffffffffffffffffffffffffffffffffffffffff168373ffffffffffffffffffffffffffffffffffffffff161415611562576040517f08c379a000000000000000000000000000000000000000000000000000000000815260040161155990612d1a565b60405180910390fd5b600061156c610b8b565b905061159c8185600061157e8761170f565b6115878761170f565b60405180602001604052806000815250611789565b600080600085815260200190815260200160002060008673ffffffffffffffffffffffffffffffffffffffff1673ffffffffffffffffffffffffffffffffffffffff16815260200190815260200160002054905082811015611633576040517f08c379a000000000000000000000000000000000000000000000000000000000815260040161162a90612dac565b60405180910390fd5b82810360008086815260200190815260200160002060008773ffffffffffffffffffffffffffffffffffffffff1673ffffffffffffffffffffffffffffffffffffffff16815260200190815260200160002081905550600073ffffffffffffffffffffffffffffffffffffffff168573ffffffffffffffffffffffffffffffffffffffff168373ffffffffffffffffffffffffffffffffffffffff167fc3d58168c5ae7397731d063d5bbf3d657854427343f4c083240f7aacaa2d0f628787604051611700929190612a00565b60405180910390a45050505050565b60606000600167ffffffffffffffff81111561172e5761172d611e4e565b5b60405190808252806020026020018201604052801561175c5781602001602082028036833780820191505090505b50905082816000815181106117745761177361274d565b5b60200260200101818152505080915050919050565b505050505050565b6117b08473ffffffffffffffffffffffffffffffffffffffff16610afe565b15611961578373ffffffffffffffffffffffffffffffffffffffff1663f23a6e6187878686866040518663ffffffff1660e01b81526004016117f6959493929190612e21565b6020604051808303816000875af192505050801561183257506040513d601f19601f8201168201806040525081019061182f9190612e90565b60015b6118d85761183e612eca565b806308c379a0141561189b5750611853612eec565b8061185e575061189d565b806040517f08c379a00000000000000000000000000000000000000000000000000000000081526004016118929190611dd4565b60405180910390fd5b505b6040517f08c379a00000000000000000000000000000000000000000000000000000000081526004016118cf90612ff4565b60405180910390fd5b63f23a6e6160e01b7bffffffffffffffffffffffffffffffffffffffffffffffffffffffff1916817bffffffffffffffffffffffffffffffffffffffffffffffffffffffff19161461195f576040517f08c379a000000000000000000000000000000000000000000000000000000000815260040161195690613086565b60405180910390fd5b505b505050505050565b6119888473ffffffffffffffffffffffffffffffffffffffff16610afe565b15611b39578373ffffffffffffffffffffffffffffffffffffffff1663bc197c8187878686866040518663ffffffff1660e01b81526004016119ce9594939291906130a6565b6020604051808303816000875af1925050508015611a0a57506040513d601f19601f82011682018060405250810190611a079190612e90565b60015b611ab057611a16612eca565b806308c379a01415611a735750611a2b612eec565b80611a365750611a75565b806040517f08c379a0000000000000000000000000000000000000000000000000000000008152600401611a6a9190611dd4565b60405180910390fd5b505b6040517f08c379a0000000000000000000000000000000000000000000000000000000008152600401611aa790612ff4565b60405180910390fd5b63bc197c8160e01b7bffffffffffffffffffffffffffffffffffffffffffffffffffffffff1916817bffffffffffffffffffffffffffffffffffffffffffffffffffffffff191614611b37576040517f08c379a0000000000000000000000000000000000000000000000000000000008152600401611b2e90613086565b60405180910390fd5b505b505050505050565b6000819050919050565b611b5481611b41565b82525050565b6000602082019050611b6f6000830184611b4b565b92915050565b6000604051905090565b600080fd5b600080fd5b600073ffffffffffffffffffffffffffffffffffffffff82169050919050565b6000611bb482611b89565b9050919050565b611bc481611ba9565b8114611bcf57600080fd5b50565b600081359050611be181611bbb565b92915050565b611bf081611b41565b8114611bfb57600080fd5b50565b600081359050611c0d81611be7565b92915050565b60008060408385031215611c2a57611c29611b7f565b5b6000611c3885828601611bd2565b9250506020611c4985828601611bfe565b9150509250929050565b60007fffffffff0000000000000000000000000000000000000000000000000000000082169050919050565b611c8881611c53565b8114611c9357600080fd5b50565b600081359050611ca581611c7f565b92915050565b600060208284031215611cc157611cc0611b7f565b5b6000611ccf84828501611c96565b91505092915050565b60008115159050919050565b611ced81611cd8565b82525050565b6000602082019050611d086000830184611ce4565b92915050565b600060208284031215611d2457611d23611b7f565b5b6000611d3284828501611bfe565b91505092915050565b600081519050919050565b600082825260208201905092915050565b60005b83811015611d75578082015181840152602081019050611d5a565b83811115611d84576000848401525b50505050565b6000601f19601f8301169050919050565b6000611da682611d3b565b611db08185611d46565b9350611dc0818560208601611d57565b611dc981611d8a565b840191505092915050565b60006020820190508181036000830152611dee8184611d9b565b905092915050565b600080600060608486031215611e0f57611e0e611b7f565b5b6000611e1d86828701611bd2565b9350506020611e2e86828701611bfe565b9250506040611e3f86828701611bfe565b9150509250925092565b600080fd5b7f4e487b7100000000000000000000000000000000000000000000000000000000600052604160045260246000fd5b611e8682611d8a565b810181811067ffffffffffffffff82111715611ea557611ea4611e4e565b5b80604052505050565b6000611eb8611b75565b9050611ec48282611e7d565b919050565b600067ffffffffffffffff821115611ee457611ee3611e4e565b5b602082029050602081019050919050565b600080fd5b6000611f0d611f0884611ec9565b611eae565b90508083825260208201905060208402830185811115611f3057611f2f611ef5565b5b835b81811015611f595780611f458882611bfe565b845260208401935050602081019050611f32565b5050509392505050565b600082601f830112611f7857611f77611e49565b5b8135611f88848260208601611efa565b91505092915050565b600080fd5b600067ffffffffffffffff821115611fb157611fb0611e4e565b5b611fba82611d8a565b9050602081019050919050565b82818337600083830152505050565b6000611fe9611fe484611f96565b611eae565b90508281526020810184848401111561200557612004611f91565b5b612010848285611fc7565b509392505050565b600082601f83011261202d5761202c611e49565b5b813561203d848260208601611fd6565b91505092915050565b600080600080600060a0868803121561206257612061611b7f565b5b600061207088828901611bd2565b955050602061208188828901611bd2565b945050604086013567ffffffffffffffff8111156120a2576120a1611b84565b5b6120ae88828901611f63565b935050606086013567ffffffffffffffff8111156120cf576120ce611b84565b5b6120db88828901611f63565b925050608086013567ffffffffffffffff8111156120fc576120fb611b84565b5b61210888828901612018565b9150509295509295909350565b600067ffffffffffffffff8211156121305761212f611e4e565b5b602082029050602081019050919050565b600061215461214f84612115565b611eae565b9050808382526020820190506020840283018581111561217757612176611ef5565b5b835b818110156121a0578061218c8882611bd2565b845260208401935050602081019050612179565b5050509392505050565b600082601f8301126121bf576121be611e49565b5b81356121cf848260208601612141565b91505092915050565b600080604083850312156121ef576121ee611b7f565b5b600083013567ffffffffffffffff81111561220d5761220c611b84565b5b612219858286016121aa565b925050602083013567ffffffffffffffff81111561223a57612239611b84565b5b61224685828601611f63565b9150509250929050565b600081519050919050565b600082825260208201905092915050565b6000819050602082019050919050565b61228581611b41565b82525050565b6000612297838361227c565b60208301905092915050565b6000602082019050919050565b60006122bb82612250565b6122c5818561225b565b93506122d08361226c565b8060005b838110156123015781516122e8888261228b565b97506122f3836122a3565b9250506001810190506122d4565b5085935050505092915050565b6000602082019050818103600083015261232881846122b0565b905092915050565b61233981611ba9565b82525050565b60006020820190506123546000830184612330565b92915050565b61236381611cd8565b811461236e57600080fd5b50565b6000813590506123808161235a565b92915050565b6000806040838503121561239d5761239c611b7f565b5b60006123ab85828601611bd2565b92505060206123bc85828601612371565b9150509250929050565b600080604083850312156123dd576123dc611b7f565b5b60006123eb85828601611bd2565b92505060206123fc85828601611bd2565b9150509250929050565b600080600080600060a0868803121561242257612421611b7f565b5b600061243088828901611bd2565b955050602061244188828901611bd2565b945050604061245288828901611bfe565b935050606061246388828901611bfe565b925050608086013567ffffffffffffffff81111561248457612483611b84565b5b61249088828901612018565b9150509295509295909350565b6000602082840312156124b3576124b2611b7f565b5b60006124c184828501611bd2565b91505092915050565b7f455243313135353a2062616c616e636520717565727920666f7220746865207a60008201527f65726f2061646472657373000000000000000000000000000000000000000000602082015250565b6000612526602b83611d46565b9150612531826124ca565b604082019050919050565b6000602082019050818103600083015261255581612519565b9050919050565b7f4e487b7100000000000000000000000000000000000000000000000000000000600052602260045260246000fd5b600060028204905060018216806125a357607f821691505b602082108114156125b7576125b661255c565b5b50919050565b7f4f776e61626c653a2063616c6c6572206973206e6f7420746865206f776e6572600082015250565b60006125f3602083611d46565b91506125fe826125bd565b602082019050919050565b60006020820190508181036000830152612622816125e6565b9050919050565b7f455243313135353a207472616e736665722063616c6c6572206973206e6f742060008201527f6f776e6572206e6f7220617070726f7665640000000000000000000000000000602082015250565b6000612685603283611d46565b915061269082612629565b604082019050919050565b600060208201905081810360008301526126b481612678565b9050919050565b7f455243313135353a206163636f756e747320616e6420696473206c656e67746860008201527f206d69736d617463680000000000000000000000000000000000000000000000602082015250565b6000612717602983611d46565b9150612722826126bb565b604082019050919050565b600060208201905081810360008301526127468161270a565b9050919050565b7f4e487b7100000000000000000000000000000000000000000000000000000000600052603260045260246000fd5b7f4e487b7100000000000000000000000000000000000000000000000000000000600052601160045260246000fd5b60006127b682611b41565b91507fffffffffffffffffffffffffffffffffffffffffffffffffffffffffffffffff8214156127e9576127e861277c565b5b600182019050919050565b7f455243313135353a2063616c6c6572206973206e6f74206f776e6572206e6f7260008201527f20617070726f7665640000000000000000000000000000000000000000000000602082015250565b6000612850602983611d46565b915061285b826127f4565b604082019050919050565b6000602082019050818103600083015261287f81612843565b9050919050565b7f4f776e61626c653a206e6577206f776e657220697320746865207a65726f206160008201527f6464726573730000000000000000000000000000000000000000000000000000602082015250565b60006128e2602683611d46565b91506128ed82612886565b604082019050919050565b60006020820190508181036000830152612911816128d5565b9050919050565b7f455243313135353a206d696e7420746f20746865207a65726f2061646472657360008201527f7300000000000000000000000000000000000000000000000000000000000000602082015250565b6000612974602183611d46565b915061297f82612918565b604082019050919050565b600060208201905081810360008301526129a381612967565b9050919050565b60006129b582611b41565b91506129c083611b41565b9250827fffffffffffffffffffffffffffffffffffffffffffffffffffffffffffffffff038211156129f5576129f461277c565b5b828201905092915050565b6000604082019050612a156000830185611b4b565b612a226020830184611b4b565b9392505050565b7f455243313135353a2069647320616e6420616d6f756e7473206c656e6774682060008201527f6d69736d61746368000000000000000000000000000000000000000000000000602082015250565b6000612a85602883611d46565b9150612a9082612a29565b604082019050919050565b60006020820190508181036000830152612ab481612a78565b9050919050565b7f455243313135353a207472616e7366657220746f20746865207a65726f20616460008201527f6472657373000000000000000000000000000000000000000000000000000000602082015250565b6000612b17602583611d46565b9150612b2282612abb565b604082019050919050565b60006020820190508181036000830152612b4681612b0a565b9050919050565b7f455243313135353a20696e73756666696369656e742062616c616e636520666f60008201527f72207472616e7366657200000000000000000000000000000000000000000000602082015250565b6000612ba9602a83611d46565b9150612bb482612b4d565b604082019050919050565b60006020820190508181036000830152612bd881612b9c565b9050919050565b60006040820190508181036000830152612bf981856122b0565b90508181036020830152612c0d81846122b0565b90509392505050565b7f455243313135353a2073657474696e6720617070726f76616c2073746174757360008201527f20666f722073656c660000000000000000000000000000000000000000000000602082015250565b6000612c72602983611d46565b9150612c7d82612c16565b604082019050919050565b60006020820190508181036000830152612ca181612c65565b9050919050565b7f455243313135353a206275726e2066726f6d20746865207a65726f206164647260008201527f6573730000000000000000000000000000000000000000000000000000000000602082015250565b6000612d04602383611d46565b9150612d0f82612ca8565b604082019050919050565b60006020820190508181036000830152612d3381612cf7565b9050919050565b7f455243313135353a206275726e20616d6f756e7420657863656564732062616c60008201527f616e636500000000000000000000000000000000000000000000000000000000602082015250565b6000612d96602483611d46565b9150612da182612d3a565b604082019050919050565b60006020820190508181036000830152612dc581612d89565b9050919050565b600081519050919050565b600082825260208201905092915050565b6000612df382612dcc565b612dfd8185612dd7565b9350612e0d818560208601611d57565b612e1681611d8a565b840191505092915050565b600060a082019050612e366000830188612330565b612e436020830187612330565b612e506040830186611b4b565b612e5d6060830185611b4b565b8181036080830152612e6f8184612de8565b90509695505050505050565b600081519050612e8a81611c7f565b92915050565b600060208284031215612ea657612ea5611b7f565b5b6000612eb484828501612e7b565b91505092915050565b60008160e01c9050919050565b600060033d1115612ee95760046000803e612ee6600051612ebd565b90505b90565b600060443d1015612efc57612f7f565b612f04611b75565b60043d036004823e80513d602482011167ffffffffffffffff82111715612f2c575050612f7f565b808201805167ffffffffffffffff811115612f4a5750505050612f7f565b80602083010160043d038501811115612f67575050505050612f7f565b612f7682602001850186611e7d565b82955050505050505b90565b7f455243313135353a207472616e7366657220746f206e6f6e204552433131353560008201527f526563656976657220696d706c656d656e746572000000000000000000000000602082015250565b6000612fde603483611d46565b9150612fe982612f82565b604082019050919050565b6000602082019050818103600083015261300d81612fd1565b9050919050565b7f455243313135353a204552433131353552656365697665722072656a6563746560008201527f6420746f6b656e73000000000000000000000000000000000000000000000000602082015250565b6000613070602883611d46565b915061307b82613014565b604082019050919050565b6000602082019050818103600083015261309f81613063565b9050919050565b600060a0820190506130bb6000830188612330565b6130c86020830187612330565b81810360408301526130da81866122b0565b905081810360608301526130ee81856122b0565b905081810360808301526131028184612de8565b9050969550505050505056fea2646970667358221220c20cff30d54fdbc58261a88487a2d0cb51a62ea97ce9183ecd31295bec084eb264736f6c634300080c003368747470733a2f2f32677a72716268746d7866772e7573656d6f72616c69732e636f6d2f7b69647d2e6a736f6e",
  "immutableReferences": {},
  "source": "pragma solidity >=0.6.0 <0.9.0;\r\n \r\nimport \"@openzeppelin/contracts/token/ERC1155/ERC1155.sol\";\r\nimport \"@openzeppelin/contracts/access/Ownable.sol\";\r\nimport \"@openzeppelin/contracts/utils/math/SafeMath.sol\";\r\n\r\ncontract HankoContract is ERC1155, Ownable {\r\n    uint256 public constant KANJI=0;\r\n    uint256 public constant KATAKANA=1;\r\n    uint256 public constant JAPAN=2;\r\n    constructor() ERC1155(\"https://2gzrqbhtmxfw.usemoralis.com/{id}.json\") {\r\n        _mint(msg.sender,KANJI,1,\"\");\r\n        _mint(msg.sender,KATAKANA,2,\"\");\r\n        _mint(msg.sender,JAPAN,3,\"\");\r\n    }\r\n\r\n    function mint(address account,uint256 id, uint256 amount) public onlyOwner{\r\n        _mint(msg.sender,id,amount,\"\");\r\n    }\r\n\r\n    function burn(address account,uint256 id, uint256 amount) public {\r\n        require(msg.sender==account);\r\n        _burn(account,id,amount);\r\n    }\r\n\r\n\r\n\r\n}",
  "sourcePath": "C:\\projects\\NFT Projects\\NFT-Hanko\\contracts\\HankoContract.sol",
  "compiler": {
    "name": "solc",
    "version": "0.8.12+commit.f00d7308.Emscripten.clang"
  },
  "schemaVersion": "3.4.5",
  "updatedAt": "2022-03-19T13:41:46.405Z",
  "networkType": "ethereum",
  "devdoc": {
    "kind": "dev",
    "methods": {
      "balanceOf(address,uint256)": {
        "details": "See {IERC1155-balanceOf}. Requirements: - `account` cannot be the zero address."
      },
      "balanceOfBatch(address[],uint256[])": {
        "details": "See {IERC1155-balanceOfBatch}. Requirements: - `accounts` and `ids` must have the same length."
      },
      "isApprovedForAll(address,address)": {
        "details": "See {IERC1155-isApprovedForAll}."
      },
      "owner()": {
        "details": "Returns the address of the current owner."
      },
      "renounceOwnership()": {
        "details": "Leaves the contract without owner. It will not be possible to call `onlyOwner` functions anymore. Can only be called by the current owner. NOTE: Renouncing ownership will leave the contract without an owner, thereby removing any functionality that is only available to the owner."
      },
      "safeBatchTransferFrom(address,address,uint256[],uint256[],bytes)": {
        "details": "See {IERC1155-safeBatchTransferFrom}."
      },
      "safeTransferFrom(address,address,uint256,uint256,bytes)": {
        "details": "See {IERC1155-safeTransferFrom}."
      },
      "setApprovalForAll(address,bool)": {
        "details": "See {IERC1155-setApprovalForAll}."
      },
      "supportsInterface(bytes4)": {
        "details": "See {IERC165-supportsInterface}."
      },
      "transferOwnership(address)": {
        "details": "Transfers ownership of the contract to a new account (`newOwner`). Can only be called by the current owner."
      },
      "uri(uint256)": {
        "details": "See {IERC1155MetadataURI-uri}. This implementation returns the same URI for *all* token types. It relies on the token type ID substitution mechanism https://eips.ethereum.org/EIPS/eip-1155#metadata[defined in the EIP]. Clients calling this function must replace the `\\{id\\}` substring with the actual token type ID."
      }
    },
    "version": 1
  },
  "userdoc": {
    "kind": "user",
    "methods": {},
    "version": 1
  }
}